{"contracts/BUILDClaim.sol":{"BUILDClaim":{"abi":[{"inputs":[{"internalType":"uint256","name":"seasonId","type":"uint256"}],"name":"getGlobalState","outputs":[{"components":[{"internalType":"uint256","name":"totalLoyalty","type":"uint256"},{"internalType":"uint256","name":"totalLoyaltyIneligible","type":"uint256"},{"internalType":"uint256","name":"newField","type":"uint256"}],"internalType":"struct BUILDClaim.GlobalState","name":"","type":"tuple"}],"stateMutability":"view","type":"function"},{"inputs":[{"internalType":"uint256","name":"seasonId","type":"uint256"},{"internalType":"uint256","name":"loyalty","type":"uint256"},{"internalType":"uint256","name":"ineligible","type":"uint256"},{"internalType":"uint256","name":"newFieldValue","type":"uint256"}],"name":"setGlobalState","outputs":[],"stateMutability":"nonpayable","type":"function"}],"evm":{"bytecode":{"linkReferences":{},"object":"6080604052348015600f57600080fd5b5061029b8061001f6000396000f3fe608060405234801561001057600080fd5b50600436106100365760003560e01c806313a668901461003b5780633f0d6aad14610057575b600080fd5b61005560048036038101906100509190610165565b610087565b005b610071600480360381019061006c91906101cc565b6100bf565b60405161007e919061024a565b60405180910390f35b600080600086815260200190815260200160002090508381600001819055508281600101819055508181600201819055505050505050565b6100c7610109565b60008083815260200190815260200160002060405180606001604052908160008201548152602001600182015481526020016002820154815250509050919050565b60405180606001604052806000815260200160008152602001600081525090565b600080fd5b6000819050919050565b6101428161012f565b811461014d57600080fd5b50565b60008135905061015f81610139565b92915050565b6000806000806080858703121561017f5761017e61012a565b5b600061018d87828801610150565b945050602061019e87828801610150565b93505060406101af87828801610150565b92505060606101c087828801610150565b91505092959194509250565b6000602082840312156101e2576101e161012a565b5b60006101f084828501610150565b91505092915050565b6102028161012f565b82525050565b60608201600082015161021e60008501826101f9565b50602082015161023160208501826101f9565b50604082015161024460408501826101f9565b50505050565b600060608201905061025f6000830184610208565b9291505056fea2646970667358221220c9bd49495f3ae35229be2990940b2cd7d7894535f07012a54f70933a284ddd2a64736f6c634300081a0033","opcodes":"PUSH1 0x80 PUSH1 0x40 MSTORE CALLVALUE DUP1 ISZERO PUSH1 0xF JUMPI PUSH1 0x0 DUP1 REVERT JUMPDEST POP PUSH2 0x29B DUP1 PUSH2 0x1F PUSH1 0x0 CODECOPY PUSH1 0x0 RETURN INVALID PUSH1 0x80 PUSH1 0x40 MSTORE CALLVALUE DUP1 ISZERO PUSH2 0x10 JUMPI PUSH1 0x0 DUP1 REVERT JUMPDEST POP PUSH1 0x4 CALLDATASIZE LT PUSH2 0x36 JUMPI PUSH1 0x0 CALLDATALOAD PUSH1 0xE0 SHR DUP1 PUSH4 0x13A66890 EQ PUSH2 0x3B JUMPI DUP1 PUSH4 0x3F0D6AAD EQ PUSH2 0x57 JUMPI JUMPDEST PUSH1 0x0 DUP1 REVERT JUMPDEST PUSH2 0x55 PUSH1 0x4 DUP1 CALLDATASIZE SUB DUP2 ADD SWAP1 PUSH2 0x50 SWAP2 SWAP1 PUSH2 0x165 JUMP JUMPDEST PUSH2 0x87 JUMP JUMPDEST STOP JUMPDEST PUSH2 0x71 PUSH1 0x4 DUP1 CALLDATASIZE SUB DUP2 ADD SWAP1 PUSH2 0x6C SWAP2 SWAP1 PUSH2 0x1CC JUMP JUMPDEST PUSH2 0xBF JUMP JUMPDEST PUSH1 0x40 MLOAD PUSH2 0x7E SWAP2 SWAP1 PUSH2 0x24A JUMP JUMPDEST PUSH1 0x40 MLOAD DUP1 SWAP2 SUB SWAP1 RETURN JUMPDEST PUSH1 0x0 DUP1 PUSH1 0x0 DUP7 DUP2 MSTORE PUSH1 0x20 ADD SWAP1 DUP2 MSTORE PUSH1 0x20 ADD PUSH1 0x0 KECCAK256 SWAP1 POP DUP4 DUP2 PUSH1 0x0 ADD DUP2 SWAP1 SSTORE POP DUP3 DUP2 PUSH1 0x1 ADD DUP2 SWAP1 SSTORE POP DUP2 DUP2 PUSH1 0x2 ADD DUP2 SWAP1 SSTORE POP POP POP POP POP POP JUMP JUMPDEST PUSH2 0xC7 PUSH2 0x109 JUMP JUMPDEST PUSH1 0x0 DUP1 DUP4 DUP2 MSTORE PUSH1 0x20 ADD SWAP1 DUP2 MSTORE PUSH1 0x20 ADD PUSH1 0x0 KECCAK256 PUSH1 0x40 MLOAD DUP1 PUSH1 0x60 ADD PUSH1 0x40 MSTORE SWAP1 DUP2 PUSH1 0x0 DUP3 ADD SLOAD DUP2 MSTORE PUSH1 0x20 ADD PUSH1 0x1 DUP3 ADD SLOAD DUP2 MSTORE PUSH1 0x20 ADD PUSH1 0x2 DUP3 ADD SLOAD DUP2 MSTORE POP POP SWAP1 POP SWAP2 SWAP1 POP JUMP JUMPDEST PUSH1 0x40 MLOAD DUP1 PUSH1 0x60 ADD PUSH1 0x40 MSTORE DUP1 PUSH1 0x0 DUP2 MSTORE PUSH1 0x20 ADD PUSH1 0x0 DUP2 MSTORE PUSH1 0x20 ADD PUSH1 0x0 DUP2 MSTORE POP SWAP1 JUMP JUMPDEST PUSH1 0x0 DUP1 REVERT JUMPDEST PUSH1 0x0 DUP2 SWAP1 POP SWAP2 SWAP1 POP JUMP JUMPDEST PUSH2 0x142 DUP2 PUSH2 0x12F JUMP JUMPDEST DUP2 EQ PUSH2 0x14D JUMPI PUSH1 0x0 DUP1 REVERT JUMPDEST POP JUMP JUMPDEST PUSH1 0x0 DUP2 CALLDATALOAD SWAP1 POP PUSH2 0x15F DUP2 PUSH2 0x139 JUMP JUMPDEST SWAP3 SWAP2 POP POP JUMP JUMPDEST PUSH1 0x0 DUP1 PUSH1 0x0 DUP1 PUSH1 0x80 DUP6 DUP8 SUB SLT ISZERO PUSH2 0x17F JUMPI PUSH2 0x17E PUSH2 0x12A JUMP JUMPDEST JUMPDEST PUSH1 0x0 PUSH2 0x18D DUP8 DUP3 DUP9 ADD PUSH2 0x150 JUMP JUMPDEST SWAP5 POP POP PUSH1 0x20 PUSH2 0x19E DUP8 DUP3 DUP9 ADD PUSH2 0x150 JUMP JUMPDEST SWAP4 POP POP PUSH1 0x40 PUSH2 0x1AF DUP8 DUP3 DUP9 ADD PUSH2 0x150 JUMP JUMPDEST SWAP3 POP POP PUSH1 0x60 PUSH2 0x1C0 DUP8 DUP3 DUP9 ADD PUSH2 0x150 JUMP JUMPDEST SWAP2 POP POP SWAP3 SWAP6 SWAP2 SWAP5 POP SWAP3 POP JUMP JUMPDEST PUSH1 0x0 PUSH1 0x20 DUP3 DUP5 SUB SLT ISZERO PUSH2 0x1E2 JUMPI PUSH2 0x1E1 PUSH2 0x12A JUMP JUMPDEST JUMPDEST PUSH1 0x0 PUSH2 0x1F0 DUP5 DUP3 DUP6 ADD PUSH2 0x150 JUMP JUMPDEST SWAP2 POP POP SWAP3 SWAP2 POP POP JUMP JUMPDEST PUSH2 0x202 DUP2 PUSH2 0x12F JUMP JUMPDEST DUP3 MSTORE POP POP JUMP JUMPDEST PUSH1 0x60 DUP3 ADD PUSH1 0x0 DUP3 ADD MLOAD PUSH2 0x21E PUSH1 0x0 DUP6 ADD DUP3 PUSH2 0x1F9 JUMP JUMPDEST POP PUSH1 0x20 DUP3 ADD MLOAD PUSH2 0x231 PUSH1 0x20 DUP6 ADD DUP3 PUSH2 0x1F9 JUMP JUMPDEST POP PUSH1 0x40 DUP3 ADD MLOAD PUSH2 0x244 PUSH1 0x40 DUP6 ADD DUP3 PUSH2 0x1F9 JUMP JUMPDEST POP POP POP POP JUMP JUMPDEST PUSH1 0x0 PUSH1 0x60 DUP3 ADD SWAP1 POP PUSH2 0x25F PUSH1 0x0 DUP4 ADD DUP5 PUSH2 0x208 JUMP JUMPDEST SWAP3 SWAP2 POP POP JUMP INVALID LOG2 PUSH5 0x6970667358 0x22 SLT KECCAK256 0xC9 0xBD BLOBHASH BLOBHASH PUSH0 GASPRICE 0xE3 MSTORE 0x29 0xBE 0x29 SWAP1 SWAP5 SIGNEXTEND 0x2C 0xD7 0xD7 DUP10 GASLIMIT CALLDATALOAD CREATE PUSH17 0x12A54F70933A284DDD2A64736F6C634300 ADDMOD BYTE STOP CALLER "},"methodIdentifiers":{"getGlobalState(uint256)":"3f0d6aad","setGlobalState(uint256,uint256,uint256,uint256)":"13a66890"}}}}}