{
  "_format": "hh-sol-artifact-1",
  "contractName": "BUILDClaim",
  "sourceName": "contracts/BUILDClaim.sol",
  "abi": [
    {
      "inputs": [
        {
          "internalType": "uint256",
          "name": "seasonId",
          "type": "uint256"
        }
      ],
      "name": "getGlobalState",
      "outputs": [
        {
          "components": [
            {
              "internalType": "uint256",
              "name": "totalLoyalty",
              "type": "uint256"
            },
            {
              "internalType": "uint256",
              "name": "totalLoyaltyIneligible",
              "type": "uint256"
            },
            {
              "internalType": "uint256",
              "name": "newField",
              "type": "uint256"
            }
          ],
          "internalType": "struct BUILDClaim.GlobalState",
          "name": "",
          "type": "tuple"
        }
      ],
      "stateMutability": "view",
      "type": "function"
    },
    {
      "inputs": [
        {
          "internalType": "uint256",
          "name": "seasonId",
          "type": "uint256"
        },
        {
          "internalType": "uint256",
          "name": "loyalty",
          "type": "uint256"
        },
        {
          "internalType": "uint256",
          "name": "ineligible",
          "type": "uint256"
        },
        {
          "internalType": "uint256",
          "name": "newFieldValue",
          "type": "uint256"
        }
      ],
      "name": "setGlobalState",
      "outputs": [],
      "stateMutability": "nonpayable",
      "type": "function"
    }
  ],
  "bytecode": "0x6080604052348015600f57600080fd5b5061029b8061001f6000396000f3fe608060405234801561001057600080fd5b50600436106100365760003560e01c806313a668901461003b5780633f0d6aad14610057575b600080fd5b61005560048036038101906100509190610165565b610087565b005b610071600480360381019061006c91906101cc565b6100bf565b60405161007e919061024a565b60405180910390f35b600080600086815260200190815260200160002090508381600001819055508281600101819055508181600201819055505050505050565b6100c7610109565b60008083815260200190815260200160002060405180606001604052908160008201548152602001600182015481526020016002820154815250509050919050565b60405180606001604052806000815260200160008152602001600081525090565b600080fd5b6000819050919050565b6101428161012f565b811461014d57600080fd5b50565b60008135905061015f81610139565b92915050565b6000806000806080858703121561017f5761017e61012a565b5b600061018d87828801610150565b945050602061019e87828801610150565b93505060406101af87828801610150565b92505060606101c087828801610150565b91505092959194509250565b6000602082840312156101e2576101e161012a565b5b60006101f084828501610150565b91505092915050565b6102028161012f565b82525050565b60608201600082015161021e60008501826101f9565b50602082015161023160208501826101f9565b50604082015161024460408501826101f9565b50505050565b600060608201905061025f6000830184610208565b9291505056fea2646970667358221220c9bd49495f3ae35229be2990940b2cd7d7894535f07012a54f70933a284ddd2a64736f6c634300081a0033",
  "linkReferences": {},
  "deployedLinkReferences": {}
}