{
  "_format": "hh-sol-artifact-1",
  "contractName": "BUILDFactory",
  "sourceName": "contracts/BUILDFactory.sol",
  "abi": [
    {
      "inputs": [
        {
          "internalType": "address",
          "name": "_claim",
          "type": "address"
        }
      ],
      "stateMutability": "nonpayable",
      "type": "constructor"
    },
    {
      "inputs": [],
      "name": "claim",
      "outputs": [
        {
          "internalType": "contract IBUILDClaim",
          "name": "",
          "type": "address"
        }
      ],
      "stateMutability": "view",
      "type": "function"
    },
    {
      "inputs": [
        {
          "internalType": "uint256",
          "name": "seasonId",
          "type": "uint256"
        }
      ],
      "name": "getRefundableLoyalty",
      "outputs": [
        {
          "internalType": "uint256",
          "name": "",
          "type": "uint256"
        }
      ],
      "stateMutability": "view",
      "type": "function"
    }
  ],
  "bytecode": "0x608060405234801561001057600080fd5b50604051610570380380610570833981810160405281019061003291906100db565b806000806101000a81548173ffffffffffffffffffffffffffffffffffffffff021916908373ffffffffffffffffffffffffffffffffffffffff16021790555050610108565b600080fd5b600073ffffffffffffffffffffffffffffffffffffffff82169050919050565b60006100a88261007d565b9050919050565b6100b88161009d565b81146100c357600080fd5b50565b6000815190506100d5816100af565b92915050565b6000602082840312156100f1576100f0610078565b5b60006100ff848285016100c6565b91505092915050565b610459806101176000396000f3fe608060405234801561001057600080fd5b50600436106100365760003560e01c80634e71d92d1461003b57806378e28bff14610059575b600080fd5b610043610089565b60405161005091906101e6565b60405180910390f35b610073600480360381019061006e9190610246565b6100ad565b6040516100809190610282565b60405180910390f35b60008054906101000a900473ffffffffffffffffffffffffffffffffffffffff1681565b60008060008054906101000a900473ffffffffffffffffffffffffffffffffffffffff1673ffffffffffffffffffffffffffffffffffffffff16633f0d6aad846040518263ffffffff1660e01b81526004016101099190610282565b6040805180830381865afa158015610125573d6000803e3d6000fd5b505050506040513d601f19601f820116820180604052508101906101499190610393565b90508060200151816000015161015f91906103ef565b915050919050565b600073ffffffffffffffffffffffffffffffffffffffff82169050919050565b6000819050919050565b60006101ac6101a76101a284610167565b610187565b610167565b9050919050565b60006101be82610191565b9050919050565b60006101d0826101b3565b9050919050565b6101e0816101c5565b82525050565b60006020820190506101fb60008301846101d7565b92915050565b6000604051905090565b600080fd5b6000819050919050565b61022381610210565b811461022e57600080fd5b50565b6000813590506102408161021a565b92915050565b60006020828403121561025c5761025b61020b565b5b600061026a84828501610231565b91505092915050565b61027c81610210565b82525050565b60006020820190506102976000830184610273565b92915050565b600080fd5b6000601f19601f8301169050919050565b7f4e487b7100000000000000000000000000000000000000000000000000000000600052604160045260246000fd5b6102eb826102a2565b810181811067ffffffffffffffff8211171561030a576103096102b3565b5b80604052505050565b600061031d610201565b905061032982826102e2565b919050565b60008151905061033d8161021a565b92915050565b6000604082840312156103595761035861029d565b5b6103636040610313565b905060006103738482850161032e565b60008301525060206103878482850161032e565b60208301525092915050565b6000604082840312156103a9576103a861020b565b5b60006103b784828501610343565b91505092915050565b7f4e487b7100000000000000000000000000000000000000000000000000000000600052601160045260246000fd5b60006103fa82610210565b915061040583610210565b925082820390508181111561041d5761041c6103c0565b5b9291505056fea2646970667358221220c473d9c84c4d1f99e4fffb02ed057b187cff3c9e76d3fc7ac4d26fa3cea8d19664736f6c634300081a0033",
  "linkReferences": {},
  "deployedLinkReferences": {}
}